:1000000000308A0004280000FF238316900000308F
:100010008A006C282C308400000803191D28013048
:10002000A100A001A00B1228A10B11284A30A000AA
:10003000A00B18281B28800B0F2808008316851694
:100040008312851A2E281430AC000A2083168516D8
:100050008312851A2E280130A10030280030A1001B
:100060009828A001A1012C0803102D18A007A00CAE
:10007000A10CAD18A007A00CA10C2D19A007A00C75
:10008000A10CAD19A007A00CA10C2D1AA007A00C63
:10009000A10CAD1AA007A00CA10C2D1BA007A00C51
:1000A000A10CAD1BA007A00CA10CD928AB012A08FC
:1000B0002B0203186B2883160511831205153230A5
:1000C000AC000A2083160511831205119630AC008E
:1000D0000A20AB0A5728DF2803081F3983001F13A3
:1000E00083161F109F101F119F1107308312990054
:1000F0001E30A5000130A60027101F1383161F1005
:100100009F101F119F1183121F1007309900831633
:100110000508850002308312A000A00B8D289028CE
:10012000000019088C1183160511831205111E2871
:10013000A1080319DF28A901A801831685168312D7
:10014000851AB6280A30AC000A20A80A0319A90AA1
:100150002908003C0318B528FF3A031DB3282808D6
:100160008F3C0318B5282714B6289D28271CCB28B8
:1001700083160511831205152508AC000A20831685
:100180000511831205110430AA00FA30AC000A20D0
:10019000AA0BC528B828A60A2608073C0318D228A7
:1001A0000130A60001302602AB00AC000A30AD00E1
:1001B000312821081E3EA5002608AA0056288316CD
:1001C00085148312851CFB288316851483128518D9
:1001D000E42883160511831205152508AC000A20B2
:1001E00083160511831205110230AA00FA30AC0003
:0A01F0000A20AA0BF62897286300E6
:02400E00943FDD
:00000001FF
;PIC12F675
;CRC=45E9  CREATED="03-dez-25 19:07"
