:1000000000308A0004280000FF238316900000308F
:100010008A001E2826308400000803191D2801309C
:10002000A100A001A00B1228A10B11284A30A000AA
:10003000A00B18281B28800B0F28080003081F3965
:1000400083001F1383161F109F101F119F1107306D
:100050008312990001308316850085128312851260
:10006000831605148312051C4728831685128312F4
:1000700085164B30A6000A2083168512831285123E
:100080000230A500FA30A6000A20A50B422830282D
:0200900063000B
:02400E00C43FAD
:00000001FF
;PIC12F675
;CRC=E733  CREATED="24-nov-25 16:41"
